:100000000C9434000C9451000C9451000C94510049
:100010000C9451000C9451000C9451000C9451001C
:100020000C9451000C9451000C9451000C9451000C
:100030000C9451000C9451000C9451000C945100FC
:100040000C9451000C9451000C9451000C945100EC
:100050000C9451000C9451000C9451000C945100DC
:100060000C9451000C94510011241FBECFEFD8E026
:10007000DEBFCDBF11E0A0E0B1E0EAE9F9E002C0E7
:1000800005900D92AA30B107D9F721E0AAE0B1E0BE
:1000900001C01D92A632B207E1F70E94CF000C9476
:1000A000CB040C940000EAE7F0E080818760808355
:1000B000ACE7B0E08C9180648C9380818068808311
:1000C0008081806280838081806480838C91806263
:1000D0008C930895ECE7F0E09081907F908390817D
:1000E000982B908321E030E0A90102C0440F551FF6
:1000F0008A95E2F740937E00EAE7F0E08081806431
:10010000808380917A0086FDFCCF8091790090E019
:100110000895CF92DF92EF92FF9281E00E946A00F1
:100120009093130180931201BC01990F880B990BD6
:100130000E94A90320E030EC4FE754E40E9435030D
:1001400020E030E44CE955E40E945E046B017C0140
:1001500060930E0170930F01809310019093110131
:100160006091000170910101072E000C880B990B22
:100170000E94A9039B01AC01C701B6010E94C30202
:100180002091020130910301409104015091050139
:100190000E943503FF90EF90DF90CF9008958AB1D1
:1001A00084658AB98BB180618BB984B1866084B96A
:1001B00087B1807E87B9A0E8B0E01C92E1E8F0E06A
:1001C000108210928500109284008C91826B8C9327
:1001D00080818161808380E091E0909387008093AB
:1001E0008600109289001092880010928B00109265
:1001F0008A0014BC15BC16BC84B5816884BD85B565
:10020000826085BD17BC0E945300C9E7D0E0188208
:1002100083E00E946A00909321018093200118825C
:1002200084E00E946A0090931F0180931E0118824F
:1002300082E00E946A0090931B0180931A01188249
:1002400020912001309121018091060190910701B8
:100250008217930774F020911E0130911F018217BD
:1002600093073CF080911A0190911B018739910509
:1002700064F0109289001092880010928B00109206
:100280008A008BB184608BB946C18BB18B7F8BB9EF
:100290000E94890060930A0170930B0180930C0106
:1002A00090930D0120E030E04AEA52E40E945904A4
:1002B00018160CF4A1C080E00E946A009093170108
:1002C00080931601992324F41092170110921601BD
:1002D00080911601909117019C01215031092F3F07
:1002E000334008F063C020911401309115012817A4
:1002F00039070CF44EC05AC0909325018093240115
:100300002091080130910901AC01421B530B50931D
:10031000230140932201909389008093880080916B
:1003200022019091230190938B0080938A008FE1AA
:100330009EE40197F1F700C0000080E00E946A008F
:10034000AC01909317018093160120911401309114
:10035000150182179307BCF420910801309109011F
:10036000421B530B50932301409322019093890029
:1003700080938800809122019091230190938B00BB
:1003800080938A0013C02F5F3F4F30931501209355
:100390001401809114019091150120911601309162
:1003A0001701821793070CF4A7CF23C08091160181
:1003B000909117019093150180931401909325015A
:1003C000809324012091080130910901AC01421B66
:1003D000530B509323014093220190938900809303
:1003E0008800809122019091230190938B0080934B
:1003F0008A008BB18B7F8BB960910A0170910B01E0
:1004000080910C0190910D0120E030E048EC52E425
:100410000E94590418162CF5809124019091250111
:10042000019790932501809324018091220190915E
:100430002301019790932301809322018BB1846063
:100440008BB980912401909125019093890080932C
:100450008800809122019091230190938B008093DA
:100460008A00C0900A01D0900B01E0900C01F0903E
:100470000D0120E030E04AEA52E4C701B6010E94D3
:10048000590488230CF447C020E030E048EC52E4E3
:10049000C701B6010E9430038823ECF58091240146
:1004A000909125019093890080938800809122018A
:1004B0009091230190938B0080938A0080E00E94AA
:1004C0006A009093170180931601209114013091D6
:1004D000150182179307FCF4909315018093140182
:1004E0009093250180932401209108013091090106
:1004F000AC01421B530B5093230140932201909374
:10050000890080938800809122019091230190932B
:100510008B0080938A0020912001309121018091ED
:100520001E0190911F01281739072CF030931D01EF
:1005300020931C0104C090931D0180931C018091A5
:100540001C0190911D01880F991F880F991F90938E
:100550001901809318018F3F910539F034F08FEF26
:1005600090E0909319018093180180911801909167
:1005700019010A9724F41092190110921801809120
:10058000180187BD42CE5058BB27AA270E94DB0224
:100590000C941F040E94110438F00E94180420F0EB
:1005A00039F49F3F19F426F40C940E040EF4E095F0
:1005B000E7FB0C940804E92F0E94300458F3BA17A3
:1005C000620773078407950720F079F4A6F50C9469
:1005D00052040EF4E0950B2EBA2FA02D0B01B90199
:1005E00090010C01CA01A0011124FF27591B99F0A9
:1005F000593F50F4503E68F11A16F040A22F232FB5
:10060000342F4427585FF3CF469537952795A79504
:10061000F0405395C9F77EF41F16BA0B620B730BAB
:10062000840BBAF09150A1F0FF0FBB1F661F771F1C
:10063000881FC2F70EC0BA0F621F731F841F48F4D1
:10064000879577956795B795F7959E3F08F0B0CF5A
:100650009395880F08F09927EE0F97958795089541
:100660000E94E40308F481E008950E9449030C9479
:100670001F040E94180458F00E94110440F029F44D
:100680005F3F29F00C94080451110C9453040C940E
:100690000E040E94300468F39923B1F3552391F3BB
:1006A000951B550BBB27AA2762177307840738F0E1
:1006B0009F5F5F4F220F331F441FAA1FA9F335D03E
:1006C0000E2E3AF0E0E832D091505040E695001CF2
:1006D000CAF72BD0FE2F29D0660F771F881FBB1FAC
:1006E000261737074807AB07B0E809F0BB0B802D8A
:1006F000BF01FF2793585F4F3AF09E3F510578F0B6
:100700000C9408040C9453045F3FE4F3983ED4F334
:10071000869577956795B795F7959F5FC9F7880F89
:10072000911D9695879597F90895E1E0660F771FDB
:10073000881FBB1F621773078407BA0720F0621B6C
:10074000730B840BBA0BEE1F88F7E0950895E894BD
:1007500009C097FB3EF490958095709561957F4F09
:100760008F4F9F4F9923A9F0F92F96E9BB279395B7
:10077000F695879577956795B795F111F8CFFAF4C7
:10078000BB0F11F460FF1BC06F5F7F4F8F4F9F4FF8
:1007900016C0882311F096E911C0772321F09EE856
:1007A000872F762F05C0662371F096E8862F70E0BC
:1007B00060E02AF09A95660F771F881FDAF7880F96
:1007C0009695879597F90895990F0008550FAA0BEC
:1007D000E0E8FEEF16161706E807F907C0F0121654
:1007E0001306E407F50798F0621B730B840B950B57
:1007F00039F40A2661F0232B242B252B21F40895AC
:100800000A2609F4A140A6958FEF811D811D089548
:1008100097F99F6780E870E060E008959FEF80ECB3
:10082000089500240A941616170618060906089556
:1008300000240A9412161306140605060895092EBC
:100840000394000C11F4882352F0BB0F40F4BF2B2B
:1008500011F460FF04C06F5F7F4F8F4F9F4F08956B
:1008600057FD9058440F551F59F05F3F71F0479561
:10087000880F97FB991F61F09F3F79F08795089546
:10088000121613061406551FF2CF4695F1DF08C065
:10089000161617061806991FF1CF86957105610582
:1008A00008940895E894BB2766277727CB0197F92A
:1008B00008950E94E40308F48FEF08950E947104E4
:1008C0000C941F040E94110438F00E94180420F0B8
:1008D000952311F00C9408040C940E0411240C942C
:1008E00053040E94300470F3959FC1F3950F50E0BC
:1008F000551F629FF001729FBB27F00DB11D639FD2
:10090000AA27F00DB11DAA1F649F6627B00DA11D77
:10091000661F829F2227B00DA11D621F739FB00D1D
:10092000A11D621F839FA00D611D221F749F33278D
:10093000A00D611D231F849F600D211D822F762F26
:100940006A2F11249F5750409AF0F1F088234AF003
:10095000EE0FFF1FBB1F661F771F881F915050406F
:10096000A9F79E3F510580F00C9408040C945304A1
:100970005F3FE4F3983ED4F3869577956795B795F6
:10098000F795E7959F5FC1F7FE2B880F911D969510
:0A099000879597F90895F894FFCFBA
:0A099A00C409CDCC544164003200C2
:00000001FF
